:100000000C9437020C945F020C945F020C945F0214
:100010000C945F020C945F020C945F020C945F02DC
:100020000C945F020C945F020C945F020C945F02CC
:100030000C945F020C945F020C945F020C945F02BC
:100040000C9463230C945F020C94D3230C94AD2383
:100050000C945F020C945F020C945F020C945F029C
:100060000C9405240C945F0200407A10F35A00A00F
:10007000724E18090010A5D4E80000E87648170071
:1000800000E40B54020000CA9A3B000000E1F505B1
:10009000000080969800000040420F000000A086FB
:1000A00001000000102700000000E803000000002D
:1000B0006400000000000A000000000001000000D1
:1000C00000002C76D888DC674F0823DFC1DFAE59EB
:1000D000E1B1B796E5E3E453C63AE651997696E87E
:1000E000E6C28426EB898C9B62ED407C6FFCEFBC02
:1000F0009C9F40F2BAA56FA5F490055A2AF75C932D
:100100006B6CF9676DC11BFCE0E40D47FEF520E662
:10011000B500D0ED902E0300943577050080841E45
:10012000080000204E0A000000C80C333333330FA0
:10013000986E12831141EF8D2114893BE65516CF3D
:10014000FEE6DB18D1844B381BF77C1D901DA4BB49
:10015000E424203284725E228100C9F124ECA1E5FE
:100160003D275D2000626C6E6B696E66006D637585
:1001700000302E302E300066772D74797065005473
:100180004D504C334361516766435262006275695A
:100190006C640041756720313020323032342030B9
:1001A000393A34363A313000626C796E6B00312E58
:1001B000332E3200682D626561740034350062753B
:1001C00066662D696E0032353600646576004172D0
:1001D0006475696E6F20556E6F00637075004154D1
:1001E0006D6567613332385000636F6E005735318B
:1001F0003030000000436F6E6E656374696E672077
:10020000746F2000436F6E6E656374696E6720744F
:100210006F20000D0A202020205F5F5F20205F5F9D
:10022000202020202020202020205F5F0D0A202079
:10023000202F205F20292F202F5F205F5F5F5F5FCF
:1002400020202F202F5F5F0D0A20202F205F2020ED
:100250002F202F202F2F202F205F205C2F202027C2
:100260005F2F0D0A202F5F5F5F5F2F5F2F5C5F2C7A
:10027000202F5F2F2F5F2F5F2F5C5F5C0D0A2020E8
:100280002020202020202F5F5F5F2F2076312E330B
:100290002E32206F6E2041726475696E6F20556E2C
:1002A0006F0D0A0D0A20235374616E6457697468D8
:1002B000556B7261696E65202020206874747073BC
:1002C0003A2F2F6269742E6C792F737775610D0A3E
:1002D0000D0A0049503A0044484350204661696C79
:1002E0006564210047657474696E672049502E2E3D
:1002F0002E0000000000240027002A00000000005B
:10030000250028002B006D73292E00526561647949
:10031000202870696E673A20000000000023002644
:10032000002900040404040404040402020202027A
:1003300002030303030303010204081020408001A9
:100340000204081020010204081020000000080028
:10035000020100000304070000000000000000622A
:10036000026202620262026202620262026202626D
:10037000026202620262026202620262026202625D
:10038000026202620262026202620262026202624D
:10039000026202620262026202620262026202DEC1
:1003A0000B6102C00B9E0B820B6102610261026154
:1003B0000261026102610261026102610261026125
:1003C0000261026102610261026102610261026115
:1003D000026102610261026102610261026102491D
:1003E0006E76616C696420485720636D643A200022
:1003F0005365727665723A2000526564697265636E
:1004000074696E6720746F200052656164790050D2
:1004100061636B657420746F6F206269673A2000B6
:10042000436F6E6E656374206661696C65642E202F
:10043000636F64653A2000496E76616C696420617F
:1004400075746820746F6B656E004C6F67696E2001
:1004500074696D656F757400486561727462656179
:10046000742074696D656F757400C6255C2F112446
:100470001FBECFEFD8E0DEBFCDBF12E0A0E0B1E0FD
:10048000E2ECFFE602C005900D92A438B107D9F75F
:1004900025E0A4E8B2E001C01D92A93CB207E1F753
:1004A00012E0C6E3D2E004C02197FE010E94D536D7
:1004B000C533D107C9F70E9466270C94D4370C9432
:1004C0000000089508958CBD9DBD089520E3FC01B2
:1004D00020833296862F82958F706F706A3030F449
:1004E000605D6293682F8111F5CF0895695CF9CF43
:1004F000FC01818D928D0895833081F028F4813044
:1005000099F08230A9F008958730A9F08830C9F0B9
:100510008430B1F4809180008F7D03C08091800091
:100520008F7780938000089584B58F7784BD089578
:1005300084B58F7DFBCF8091B0008F778093B00022
:1005400008958091B0008F7DF9CF1F93CF93DF93F3
:10055000282F30E0F901E55BFC4F8491F901E95C5B
:10056000FC4FD491F901ED5DFC4FC491CC23A9F06F
:10057000162F81110E947C02EC2FF0E0EE0FFF1F7E
:10058000E450FD4FA591B4918FB7F894EC911111FF
:1005900008C0D095DE23DC938FBFDF91CF911F91F0
:1005A0000895DE2BF8CFCF93DF9390E0FC01E95C58
:1005B000FC4F24918D5D9C4FFC0184918823C9F0F0
:1005C00090E0880F991FFC01EE50FD4FA591B4916A
:1005D000FC01E450FD4FC591D49161110DC09FB74E
:1005E000F8948C91209582238C93888128232883EA
:1005F0009FBFDF91CF910895623051F49FB7F89477
:100600003C91822F809583238C93E8812E2BEFCF12
:100610008FB7F894EC912E2B2C938FBFEACF1F93BA
:10062000CF93DF93182FEB0161E00E94D302209754
:1006300039F460E0812FDF91CF911F910C94A502D6
:10064000CF3FD10511F461E0F5CFE12FF0E0E55B9C
:10065000FC4FE491E33031F140F4E130B1F0E230AD
:10066000E1F0C038D1057CF7E4CFE73029F1E8307C
:1006700059F1E430B1F7809180008062809380006E
:10068000D0938B00C0938A0004C084B5806884BD79
:10069000C7BDDF91CF911F91089584B5806284BD5D
:1006A000C8BDF7CF80918000806880938000D09390
:1006B0008900C0938800EDCF8091B000806880935E
:1006C000B000C093B300E5CF8091B000806280930A
:1006D000B000C093B400DDCF8E3008F08E5087702C
:1006E000806480937C0080917A00806480937A009B
:1006F00080917A0086FDFCCF8091780090917900FE
:1007000008953FB7F8948091B6039091B703A091F4
:10071000B803B091B90326B5A89B05C02F3F19F0C7
:100720000196A11DB11D3FBFBA2FA92F982F882771
:10073000BC01CD01620F711D811D911D42E0660F4C
:10074000771F881F991F4A95D1F708958F929F921E
:10075000AF92BF92CF92DF92EF92FF926B017C013A
:100760000E9481034B015C01C114D104E104F10436
:10077000B9F00E948103681979098A099B09683ECA
:1007800073408105910580F321E0C21AD108E10888
:10079000F10888EE880E83E0981EA11CB11CE4CFFE
:1007A000FF90EF90DF90CF90BF90AF909F908F9091
:1007B00008952FB7F8946091B2037091B3038091BC
:1007C000B4039091B5032FBF089508950895089537
:1007D0004F925F926F927F92AF92BF92CF92DF92D1
:1007E000EF92FF920F931F93CF93DF93EC016B0176
:1007F0007B01E40EF51E8B015801AC18BD080E15E7
:100800001F0511F10E94D903688779878A879B8722
:10081000E881F9810284F385E02DCE01099597FFE7
:1008200023C00E94D903488459846A847B84641954
:100830007509860997094C805D806E807F806415FC
:1008400075058605970520F3C501DF91CF911F91AE
:100850000F91FF90EF90DF90CF90BF90AF907F907F
:100860006F905F904F900895F80181938F01C4CFEE
:10087000DC01ED91FC910190F081E02D0994AF92A3
:10088000BF92CF92DF92EF92FF920F931F93CF937D
:10089000DF936C017B018B01040F151FEB015E01DF
:1008A000AE18BF08C017D10759F06991D601ED9174
:1008B000FC910190F081E02DC6010995892B79F713
:1008C000C501DF91CF911F910F91FF90EF90DF90C5
:1008D000CF90BF90AF900895FC01538D448D252F8C
:1008E00030E0842F90E0821B930B541710F0CF96CA
:1008F000089501970895FC01918D828D981761F0FC
:10090000A28DAE0FBF2FB11D5D968C91928D9F5F12
:100910009F73928F90E008958FEF9FEF0895FC01F1
:10092000918D828D981731F0828DE80FF11D858DA4
:1009300090E008958FEF9FEF0895FC01918D228D37
:10094000892F90E0805C9F4F821B91098F739927BC
:10095000089587ED93E00E949D0421E0892B09F41E
:1009600020E0822F089580E090E0892B29F00E94FA
:10097000A90481110C9400000895FC01A48DA80F16
:10098000B92FB11DA35ABF4F2C91848D90E00196D1
:100990008F739927848FA689B7892C93A089B189F1
:1009A0008C91837080648C93938D848D981306C092
:1009B0000288F389E02D80818F7D80830895EF92F6
:1009C000FF920F931F93CF93DF93EC0181E0888F09
:1009D0009B8D8C8D98131AC0E889F989808185FFD9
:1009E00015C09FB7F894EE89FF896083E889F9897B
:1009F00080818370806480839FBF81E090E0DF917D
:100A0000CF911F910F91FF90EF900895F62E0B8DCF
:100A100010E00F5F1F4F0F731127E02E8C8D8E118A
:100A20000CC00FB607FCFACFE889F989808185FFF1
:100A3000F5CFCE010E94BD04F1CFEB8DEC0FFD2F61
:100A4000F11DE35AFF4FF0829FB7F8940B8FEA89AC
:100A5000FB8980818062CFCF0F931F93CF93DF9369
:100A60008C01D0E0C0E0F801EC0FFD1F649166231B
:100A700041F087ED93E00E94DF04892B11F021966D
:100A8000F2CFCE01DF91CF911F910F910895682F82
:100A900087ED93E00C94DF04CF93DF93EC01888D16
:100AA0008823B9F0AA89BB89E889F9898C9185FDE9
:100AB00003C0808186FD0DC00FB607FCF7CF8C9177
:100AC00085FFF2CF808185FFEDCFCE010E94BD046E
:100AD000E9CFDF91CF9108952091C602260F3327E9
:100AE000331F21323105ECF420910F03FC0190E01B
:100AF00080E0243069F082E00895A091C60221913F
:100B0000AC014A555D4FA40FB52FB11D2C93019632
:100B1000861798F38091C602680F6093C60280E042
:100B2000089581E0089510920F0381E080930E03F1
:100B30001092E90261E082E10E94A50261E083E196
:100B40000E94A502E9EBF0E080818E7F80838081A6
:100B50008D7F808388E48093B80085E48093BC0017
:100B60000895CF93DF9391E09093A5028823B9F085
:100B7000C091B800D091BA008091BC008A7B80936C
:100B8000BC0060E082E10E94A50260E083E10E9477
:100B9000A5020E949305D093BA00C093B800DF91DC
:100BA000CF910895E0913E0380913D03E81730F422
:100BB000F0E0EB57FD4F808190E008958FEF9FEFBD
:100BC000089590913E0380913D032FEF3FEF9817DA
:100BD00048F4E92FF0E0EB57FD4F208130E09F5FB4
:100BE00090933E03C901089580913D0390913E0387
:100BF000891B990B0895CF92DF92EF92FF920F938A
:100C00001F93CF93DF937C01CB018A0120911503C1
:100C1000222389F0EB016B01C40ED51ECC15DD0536
:100C200069F06991D701ED91FC910190F081E02D7F
:100C3000C7010995F3CF642F0E946C05C801DF91AD
:100C4000CF911F910F91FF90EF90DF90CF9008957B
:100C5000CF93DF931F92CDB7DEB769832091150341
:100C60002223F9F020913B03203258F021E030E0BC
:100C7000FC013383228390E080E00F90DF91CF91DD
:100C8000089580913C03E82FF0E0EA5EFC4F9981E3
:100C900090838F5F80933C0380933B0381E090E0DF
:100CA000ECCF61E0CE0101960E946C05F7CFCF92A8
:100CB000DF92EF92FF920F931F93CF93DF93FC018C
:100CC000C48121E020931503C093360310923C03A6
:100CD00010923B038385682B84E794E00E942806EA
:100CE000D0913B03D13208F092C00E9481036B0186
:100CF0007C0180910F03811165C082E080930F0316
:100D000081E080930E038FEF80930D0310920C030C
:100D1000D0930B03A6E1B3E0EBEEF2E080E0D81352
:100D200085C01092EA028091EA02CC0FC82BC093D2
:100D3000EA028091E902813009F07CC01092E90258
:100D40000E9481036B017C018091EA028093BB00C9
:100D50008091110390911203A0911303B091140399
:100D6000892B8A2B8B2B99F00E9481030091110310
:100D70001091120320911303309114036C197D0913
:100D80008E099F090617170728073907E0F1809198
:100D9000BC0083FDD9CF85EC8093BC000E94810309
:100DA0006B017C0180910F03823009F445C0809172
:100DB0000D038F3F61F180910D03803241F18091ED
:100DC0000D0325C08091110390911203A09113038C
:100DD000B0911403892B8A2B8B2B09F48ACF0E94A4
:100DE000810300911103109112032091130330919C
:100DF00014036C197D098E099F0906171707280728
:100E0000390708F076CF809110030E94B105109247
:100E10003C0310923B0310921503DF91CF911F9179
:100E20000F91FF90EF90DF90CF9008959D91919357
:100E30008F5F75CF85EEB0CF809111039091120333
:100E4000A0911303B0911403892B8A2B8B2B09F4E7
:100E5000A9CF0E94810300911103109112032091E8
:100E60001303309114036C197D098E099F0906172D
:100E700017072807390708F095CFC5CFFC01208157
:100E80002EBD9B012150310941F051810DB407FE67
:100E9000FDCF4EB55EBD4193F5CF61507109860F10
:100EA000971F0DB407FEFDCF2EB5FC0120830895DA
:100EB000E0914003F0914103808190913F03892BA1
:100EC00080830895E0914003F091410390818091E7
:100ED0003F0380958923808308958EBD00000DB463
:100EE00007FEFDCF8EB50895AF92BF92CF92DF92ED
:100EF000EF92FF920F931F93CF93DF93CDB7DEB79F
:100F000028970FB6F894DEBF0FBECDBF8C017B01D2
:100F10006A018091D6038333E1F45801A40EB51E13
:100F2000A016B10609F46FC00E94620780EF0E940C
:100F30006D07812F0E946D07802F0E946D070F5F44
:100F40001F4FF70181917F010E946D070E94580792
:100F5000E7CF5B01A40EB51E8433C1F40E94620783
:100F600019830A838D2D80688B83CC8264E070E0C6
:100F7000CE0101960E943E07AE14BF0409F441C0A1
:100F8000F70181917F010E946D07F6CF0E946207F1
:100F90000F3F110509F028F419820A8384E08B833E
:100FA0000CC017FD17C019820A8333E01695079508
:100FB0003A95E1F7007E0C600B8386E0C816D104F9
:100FC000A0F5F701DE011496EA15FB0599F0819171
:100FD0008D93FACFC80126E0969587952A95E1F77B
:100FE000807E19830A830115104C10F48461D7CFD9
:100FF0008C61D5CFB6016D5F7F4FCE0101960E9407
:101000003E070E945807C60128960FB6F894DEBF27
:101010000FBECDBFDF91CF911F910F91FF90EF9049
:10102000DF90CF90BF90AF90089563E070E0CE0165
:1010300001960E943E07F70181917F010E946D0792
:10104000AE14BF04C1F7DDCFCF93DF931F92CDB7AE
:10105000DEB7898341E050E0BE016F5F7F4F90E0D3
:1010600080E00E9474070F90DF91CF91089590E087
:101070002091D603233339F40C96982F990F990FAA
:10108000990F80E008954896F8CFDA01E091430384
:10109000F0E0FE2FEE27E60FF71F90E0982F88274D
:1010A000A901BD018E0F9F1F0C947407CF93DF938E
:1010B00000D0CDB7DEB779836A8322E030E0AE019D
:1010C0004F5F5F4F60E170E00E9445080F900F9006
:1010D000DF91CF910895CF93DF9300D0CDB7DEB7E6
:1010E00079836A8322E030E0AE014F5F5F4F64E0B6
:1010F00070E00E9445080F900F90DF91CF91089506
:10110000CF93DF931F92CDB7DEB72091430330E03A
:10111000322F2227260F371F90E0982F88274983E8
:1011200041E050E0BE016F5F7F4F820F931F0E942E
:1011300074070F90DF91CF910895CF93DF931F92A3
:10114000CDB7DEB76983DC01ED91FC910280F381BC
:10115000E02D41E050E0BE016F5F7F4F09950F9099
:10116000DF91CF910895FC019485FB01848598134C
:1011700003C081E0943008F080E00895CF93DF93BE
:101180001F92CDB7DEB76983DC01ED91FC9102803F
:10119000F381E02D41E050E0BE016F5F7F4F099584
:1011A0000F90DF91CF9108950895FF920F931F93B1
:1011B000CF93DF93EB01FC01178A168A2A81211154
:1011C00009C02B81211106C02C81211103C02D8162
:1011D000222301F141155105E9F08A01FC01F08C4F
:1011E00080E591E00E946302AE014E5F5F4F24E014
:1011F00030E06CE070E08F2D0E944508B8018F2D23
:101200000E94560881E090E0DF91CF911F910F91ED
:10121000FF90089580E0F7CFFC01848595850895BF
:10122000FC018489958908952AEA31E0FC01318323
:101230002083FB014089518962897389FC014283C3
:101240005383648375830895DC01ED91FC91048CD4
:10125000F58DE02D099490E080E008958EE00E94E5
:101260006C03BC01990F880B990B0E94253420E078
:1012700030E040EA50E40E94843420E030E040E86E
:101280005AE30E9484342AE037ED43E25CE30E9493
:10129000DC35089590E080E00E94470581E090E011
:1012A0000C944705FC019485992369F08081918114
:1012B000DC01ED91FC910688F789E02D099591E01C
:1012C000811101C090E0892F0895DC011C961C92C9
:1012D0001C978D919C91009739F0DC01ED91FC9168
:1012E0000488F589E02D09940895FC0176876587C7
:1012F0000895DC01ED91FC9102A0F3A1E02D099588
:1013000091E089270895862F089581E08627089522
:1013100021E0FC018485843008F020E0822F0895CC
:1013200008950F931F93CF938C01C62F0E945706E9
:101330006C2F6460C8010E9457066C2F6B7FC80138
:101340000E94570683EC90E00197F1F7CF911F912F
:101350000F9108950F931F93CF93DF938C01D62F96
:10136000C42F607F642B0E94910980E1D89FB00157
:1013700011246C2BC801DF91CF911F910F910C9418
:101380009109CF93DF93CDB7DEB728970FB6F894C6
:10139000DEBF0FBECDBF98E0ECE0F1E0DE011196BC
:1013A00001900D929A95E1F79091C404961708F474
:1013B0006FEF262F30E0220F331F41E050E04C0F3B
:1013C0005D1F240F351FF9016081680F606840E0E0
:1013D0008CEB94E028960FB6F894DEBF0FBECDBF1D
:1013E000DF91CF910C94AA0940E061E08CEB94E08E
:1013F0000E94AA098BE39FE10197F1F7089541E06C
:101400000E94AA0981E090E00895FB01019000206C
:10141000E9F73197AF01461B570BDC01ED91FC91C9
:101420000280F381E02D0994CF93DF930E942C0575
:10143000EC016CEA71E087ED93E00E94050A8C0FE5
:101440009D1FDF91CF9108958F929F92AF92BF928F
:10145000EF92FF920F931F93CF93DF93CDB7DEB739
:10146000A1970FB6F894DEBF0FBECDBF7C01FA0185
:10147000CB0119A2223008F42AE08E010F5D1F4F24
:10148000822E912CB12CA12CBF01A50194010E94A8
:10149000AB35F901CA016A300CF5605DD8016E9375
:1014A0008D01232B242B252B79F790E080E01097DA
:1014B00021F0BD01C7010E94050AA1960FB6F8945C
:1014C000DEBF0FBECDBFDF91CF911F910F91FF9077
:1014D000EF90BF90AF909F908F900895695CDECFA2
:1014E000CF93DF93AC0170E060E02AE087ED93E0FA
:1014F0000E94240AEC016CEA71E087ED93E00E94FF
:10150000050A8C0F9D1FDF91CF910895462F50E063
:1015100070E060E02AE00C94240A8F929F92AF92D0
:10152000BF92CF92DF92EF92FF920F931F93CF93D0
:10153000DF937C018B014C0182E0880E911C5701E6
:10154000E5E0AE0EB11CD0E0C0E0F40161914F01C6
:10155000C8010E94860A6C016EE2C8010E9438042C
:101560008C0D9D1DC80FD91F8A149B0471F7F701BC
:101570006581C8010E94860A8C0F9D1FDF91CF9163
:101580001F910F91FF90EF90DF90CF90BF90AF90A1
:101590009F908F9008956BE587ED93E00E9438044B
:1015A0000E94D903AB01BC012AE087ED93E00E94C1
:1015B000240A82E691E00C942C056115710511F066
:1015C0000C94050A90E080E00895EF92FF920F934B
:1015D0001F93CF93DF9300D000D000D0CDB7DEB7FC
:1015E0008C017B01DC0118968D919C91892BB1F1C6
:1015F0000E94CB0A85EF91E00E942C05F8016085DE
:10160000718587ED93E00E94DD0A6AE387ED93E040
:101610000E943804C7010E94700AD8018D919C91E4
:10162000119718966D917C91DC01ED91FC910088E9
:10163000F189E02DA701099521E0019709F020E04B
:10164000822F26960FB6F894DEBF0FBECDBFDF9176
:10165000CF911F910F91FF90EF9008950E94CB0AB8
:1016600084E092E00E942C05F801648187ED93E00C
:101670000E94860A6EE287ED93E00E943804D8014A
:1016800015966C9187ED93E00E94860A6EE287EDD5
:1016900093E00E943804F801668187ED93E00E9490
:1016A000860A6EE287ED93E00E943804D80117960F
:1016B0006C9187ED93E00E94860A6CEA71E087EDF9
:1016C00093E00E94050AF80180819181DC01ED918F
:1016D000FC910684F785E02D2AEA31E03A832983DC
:1016E000D80114964D915D916D917C9117974B8324
:1016F0005C836D837E83A701BE016F5F7F4F9BCFAD
:101700000C941F30FB01808191810E944C31892B08
:1017100061F00E944A0961E087E00E94C1096FEA16
:1017200071E08CEB94E00C94DD0A0E944A0961E0C0
:1017300087E00E94C10969EB71E0F3CFFB01808172
:1017400091810E944C3121E0009709F420E0209320
:10175000AE03892B61F00E944A0961E088E00E9493
:10176000C10963EC71E08CEB94E00C94DD0A0E94FB
:101770004A0961E088E00E94C1096DEC71E0F3CF95
:10178000FB01808191810E944C3121E0009709F496
:1017900020E020938402892B51F061E085E00E94D3
:1017A000A50267ED71E08CEB94E00C94DD0A60E03B
:1017B00085E00E94A5026FED71E0F5CFFB0180810D
:1017C00091810E944C31892B51F061E084E00E94AC
:1017D000A50268EE71E08CEB94E00C94DD0A60E009
:1017E00084E00E94A50260EF71E0F5CFAF92BF9256
:1017F000CF92DF92EF92FF920F931F93CF93DF93DD
:1018000000D000D0CDB7DEB78C016B017A0180919A
:10181000D6038333E9F45B016801C40ED51EC016FC
:10182000D106A9F10E9462078FE00E946D07812F07
:101830000E946D07802F0E946D070F5F1F4F80E091
:101840000E946D07F50181935F010E945807E7CF61
:10185000843369F50E94620719830A838F2D8F777D
:101860008B83EC8264E070E0CE0101960E943E071B
:10187000A70170E060E0C6010E94AE37E114F104F8
:1018800021F0B701C6010E943E070E945807C70118
:101890000F900F900F900F90DF91CF911F910F91AC
:1018A000FF90EF90DF90CF90BF90AF9008950E948F
:1018B00062070F3F110509F030F419820A831B8279
:1018C00063E070E0D1CF17FD0BC019820A8333E0CB
:1018D000169507953A95E1F7007E08600B83F0CFE7
:1018E000C80126E0969587952A95E1F7807E1983B1
:1018F0000A830115104C18F480618B83E1CF886155
:10190000FCCFCF93DF931F92CDB7DEB72091430377
:1019100030E0322F2227260F371F90E0982F88279C
:1019200041E050E0BE016F5F7F4F820F931F0E9426
:10193000F60B89810F90DF91CF910895CF93C82F37
:10194000462F61E070E00E94800861E070E08C2F1B
:101950000E94810C8111F9CFCF910895CF93C82FA8
:1019600080E591E00E94630268E070E08C2FCF91E7
:101970000C949E0CCF93C82F80E591E00E946302E7
:1019800060E170E08C2FCF910C949E0CCF93DF938D
:10199000EC01888D843020F40E94BA0C84E0888F9A
:1019A000DF91CF910895CF93C82F80E591E00E94F9
:1019B000630263E070E08C2FCF910C94810CCF9385
:1019C000DF93EC018C858430D0F40E94D30C8431F9
:1019D00089F0882379F0883169F021E08C3159F45D
:1019E000E881F9810084F185E02DCE01099521E09F
:1019F000892B09F420E0822FDF91CF91089580E0B8
:101A0000FBCFCF92DF92EF92FF92CF93DF93EC0167
:101A10008C85843068F40E94AE0C0E94D9036B015F
:101A20007C018C850E94D30C811109C084E08C87D5
:101A3000DF91CF91FF90EF90DF90CF90089561E01C
:101A400070E080E090E00E94A6030E94D903AB0101
:101A5000BC014C195D096E097F098D859E85B0E03A
:101A6000A0E0481759076A077B07D8F28C850E94C7
:101A7000BA0CDCCFCF93FC01C08D80E591E00E94D1
:101A8000630260E270E08C2F0E949E0C62E070E0C6
:101A90008C2F0E94810C84FD16C062E070E08C2FB8
:101AA0000E94810C83FF0AC048E162E070E08C2F45
:101AB0000E94800880E090E0CF91089580E591E059
:101AC0000E946302E3CF40E162E070E08C2F0E944D
:101AD000800881E0F0CFCF93DF931F92CDB7DEB7C0
:101AE00041E050E0BE016F5F7F4F90E080E00E94D8
:101AF000F60B89810F90DF91CF910895CF93DF93FB
:101B0000C4E1D0E00E946B0D882361F061E070E0D9
:101B100080E090E00E94A6032197A1F780E0DF918A
:101B2000CF91089581E0FBCF1F93CF93DF931F9256
:101B3000CDB7DEB7182F80E591E00E946302812FB8
:101B40000E94370827E0129FF0011124E654FC4F51
:101B500022813381377041E050E0BE016F5F7F4FDB
:101B6000820F931F0E94F60B89810F90DF91CF9116
:101B70001F910895FC01808D843040F4218D328DB9
:101B8000232B21F00E94940D90E008958FEF9FEF9A
:101B90000895CF93DF93FC012485243028F08FEF44
:101BA0009FEFDF91CF910895EC010190F081E02D3E
:101BB0000084F185E02D0995892B89F38C850E949D
:101BC000940D90E0EECFDA01E0914303F0E0FE2FB8
:101BD000EE27E60FF71F90E0982F8827A901BD0197
:101BE0008E0F9F1F0C94F60B8F929F92AF92BF9215
:101BF000CF92DF92EF92FF921F93CF93DF93CDB7F7
:101C0000DEB72C970FB6F894DEBF0FBECDBF209184
:101C1000D60314E0222339F16B017C0180E591E0C9
:101C20000E9463025E0127E0A20EB11C450110E094
:101C300063E070E0812F0E94810CF40181934F01D9
:101C4000882349F11F5F143099F710E0F501819165
:101C50005F018D31D9F08831C9F08A518230B0F0FE
:101C60001F5F143099F7812F2C960FB6F894DEBFC2
:101C70000FBECDBFDF91CF911F91FF90EF90DF900E
:101C8000CF90BF90AF909F908F90089560E170E0EB
:101C9000812F0E949E0CA12EB12C83EE93E0019720
:101CA000F1F742E870E060E0812F0E9480084FEF7A
:101CB00062E070E0812F0E948008B601C114D10457
:101CC00091F4809100019091010101968115F0EC51
:101CD0009F0708F45CC0909301018093000160911C
:101CE000000170910101812F0E946B0886E0E4E100
:101CF000F1E0DE01119601900D928A95E1F7F7016E
:101D000083818F778C8384818D8385818E83A701E6
:101D10004E5F5F4F24E030E06CE070E0812F0E9466
:101D20004508B601812F0E94560826E030E0AE013A
:101D30004F5F5F4F66E070E0812F0E94450861E0D1
:101D400070E0812F0E949E0C27E02A9DC0012B9DF0
:101D5000900D11249C0126543C4F7901F901118208
:101D6000108222E030E0AE01455F5F4F68E270E034
:101D7000812F0E94E30D8B859C85982789279827C2
:101D8000F701938382831682158214826CCF80E0E0
:101D900090ECA1CFCF92DF92EF92FF920F931F931F
:101DA000CF93DF9300D000D000D0CDB7DEB78C0149
:101DB0006B017A01FC01808D843010F40E94BA0C12
:101DC0008AEA91E09A838983F60182819381A481D2
:101DD000B5818B839C83AD83BE83B701CE01019611
:101DE0000E94F40DF801808F8430A0F4F586E4861B
:101DF000128E118E81E026960FB6F894DEBF0FBECC
:101E0000CDBFDF91CF911F910F91FF90EF90DF90A9
:101E1000CF90089580E0EFCFAF92BF92CF92DF9244
:101E2000EF92FF920F931F93CF93DF9300D000D0D8
:101E300000D0CDB7DEB7082F6B0180E591E00E949E
:101E400063029E012F5F3F4F7901590110E063E06B
:101E500070E0812F0E94810CF50181935F0188233E
:101E600041F11F5F143099F710E0F70181917F0174
:101E70008D31D1F08831C1F08A518230A8F01F5FD6
:101E8000143099F7812F26960FB6F894DEBF0FBE57
:101E9000CDBFDF91CF911F910F91FF90EF90DF9019
:101EA000CF90BF90AF90089560E170E0812F0E94C5
:101EB0009E0CE12EF12C83EE93E00197F1F7402F79
:101EC00070E060E0812F0E9480084FEF62E070E0D8
:101ED000812F0E948008B601CD2889F480910001ED
:101EE0009091010101968115F0EC9F0798F1909374
:101EF0000101809300016091000170910101812F27
:101F00000E946B0861E070E0812F0E949E0C27E028
:101F10002E9DC0012F9D900D11249C0126543C4FF5
:101F20007901F9011182108222E030E0AE014B5FAD
:101F30005F4F68E270E0812F0E94E30D8D819E81EA
:101F4000982789279827F701938382831682158221
:101F5000148298CF80E090ECCACFCF92DF92EF92BC
:101F6000FF921F93CF93DF93EC017B016A018C8575
:101F7000843048F40E94D30C882319F08C850E9489
:101F8000AE0C84E08C87F70182819381A481B581B6
:101F90000097A105B10551F490E080E0DF91CF9169
:101FA0001F91FF90EF90DF90CF9008958F3F9F4F4C
:101FB000AF4FBF4F89F38091D603811103C084E0F6
:101FC0008C87EACF70E060E081E20E940C0F182F4E
:101FD0008C87843008F780E591E00E946302A701B6
:101FE0004E5F5F4F24E030E06CE070E0812F0E9494
:101FF0004508B601812F0E94560864E070E0812FE9
:102000000E949E0C0E94D9036B017C018C850E946A
:10201000D30C873109F18C31F9F0882309F4BCCF56
:102020000E94D903AB01BC014C195D096E097F09FF
:102030008D859E85B0E0A0E084179507A607B707B9
:1020400038F061E070E080E090E00E94A603DECF0F
:102050008C850E94BA0CB3CF81E090E09FCF0F93A4
:102060001F93CF93DF93EC018B01888D843010F4A4
:102070000E94BA0C8091D603811107C094E0988F1A
:10208000DF91CF911F910F910895B80182E00E94D6
:102090000C0F888F843030F41D870C871A8E198EB0
:1020A00081E0EECF80E0ECCF7F928F929F92AF9253
:1020B000BF92CF92DF92EF92FF920F931F93CF9335
:1020C000DF9300D0CDB7DEB7782E8B014A015901DE
:1020D00022E030E0AE014F5F5F4F64E270E00E94AB
:1020E000E30DE980FA80FE24EF24FE24E00EF11EC9
:1020F000970137704091D603072D10E0433309F064
:1021000042C0085F1F4F102F0027110F110F110F32
:10211000C901800F911F4733C9F1A9014A0D5B1D09
:102120004130584098F160E078E06B01C21AD30A60
:10213000A601B4010E947407A5014C195D09B40100
:102140006C0D7D1DC8010E947407EA0CFB1CF9820E
:10215000EA8222E030E0AE014F5F5F4F64E270E060
:10216000872D0E9445080F900F90DF91CF911F910E
:102170000F91FF90EF90DF90CF90BF90AF909F9026
:102180008F907F900895005F1F4FBDCFA501B401D0
:10219000DACFEF92FF921F93CF93DF9300D0CDB7AA
:1021A000DEB7182F22E030E0AE014F5F5F4F60E2F4
:1021B00070E00E94E30DE980FA80FE24EF24FE2403
:1021C00022E030E0AE014F5F5F4F60E270E0812FB0
:1021D0000E94E30D89819A81982789279827E8161C
:1021E000F90689F487E0189FF0011124E654FC4FAA
:1021F000F582E482C7010F900F90DF91CF911F917C
:10220000FF90EF9008957C01DBCF1F93CF93DF9376
:10221000182F80E591E00E946302812F0E94C9106F
:10222000EC0163E070E0812F0E94810C873121F086
:102230008C3111F0D0E0C0E0CE01DF91CF911F9141
:102240000895CF93DF93EC018C85843060F40E9475
:10225000D30C873111F08C3131F48C850E9405113B
:102260008115984088F3DF91CF910895FC01848512
:10227000843010F40C94051190E080E008959F9252
:10228000AF92BF92CF92DF92EF92FF920F931F9384
:10229000CF93DF938C015B01942EE52EFC01C68861
:1022A000D788F08C80E591E00E9463028F2D0E9418
:1022B000C910C92DDE2D8C179D0708F4EC019E0175
:1022C000A501B6018F2D0E945410F80186899789C7
:1022D0008C0F9D1F978B868BCE01DF91CF911F9125
:1022E0000F91FF90EF90DF90CF90BF90AF909F90B5
:1022F00008958F929F92AF92BF92CF92DF92EF920A
:10230000FF920F931F93CF936C015B018A01FC0135
:10231000C485C430F0F57A014130584018F0E12C02
:1023200088E0F82E80E591E00E9463028C2F0E94E5
:10233000C9104C0163E070E08C2F0E94810C873142
:1023400011F08C3149F58E149F0460F380E591E023
:102350000E9463029701A50170E060E08C2F0E944B
:10236000541060E270E08C2F0E949E0C62E070E0DE
:102370008C2F0E94810C84FD17C063E070E08C2FCD
:102380000E94810C81110BC081E090E0F6019383E3
:10239000828310E000E010C0F12CE12CD7CF80E563
:1023A00091E00E946302E2CF40E162E070E08C2F96
:1023B0000E948008EF2841F3C801CF911F910F912F
:1023C000FF90EF90DF90CF90BF90AF909F908F9055
:1023D0000895FF920F931F93CF93DF9300D0CDB753
:1023E000DEB7F82E22E030E0AE014F5F5F4F66E2CD
:1023F00070E00E94E30D09811A8110270127102740
:1024000022E030E0AE014F5F5F4F66E270E08F2D5B
:102410000E94E30D89819A819827892798270817B8
:10242000190749F4C8010F900F90DF91CF911F91C8
:102430000F91FF9008958C01E3CF1F93CF93DF930B
:10244000182F87E0189FE0011124C654DC4F8881C3
:102450009981009761F480E591E00E946302812FE9
:102460000E94E9112E81821B910999838883DF9153
:10247000CF911F910895FC018485843010F40C9451
:102480001D1290E080E008954F925F927F928F92AC
:102490009F92AF92BF92CF92DF92EF92FF920F93F3
:1024A0001F93CF93DF9300D0CDB7DEB7782E6B01AB
:1024B0004A01A82EB12C27E0829FC0011124FC0103
:1024C000E654FC4F7F010081118180E591E00E947C
:1024D00063020815190554F4872D0E94E911F701CC
:1024E00026818C01021B110911830083011511053E
:1024F00029F563E070E0872D0E94810C843159F04A
:10250000882349F001E010E08C3111F410E000E084
:10251000119501951109C8010F900F90DF91CF918E
:102520001F910F91FF90EF90DF90CF90BF90AF90F1
:102530009F908F907F905F904F90089580169106A6
:102540000CF4840187E08A9DF0018B9DF00D11242D
:10255000E654FC4FE280F380C114D10451F127010D
:10256000F7E05F22872D0E943708840D951D20918A
:10257000D603273309F453C09801240D351D2130AB
:10258000384008F44CC020E038E049018418950830
:10259000A401B6010E94F60B2601480C591C6801E3
:1025A000C818D908872D0E943708A601B2010E94D9
:1025B000F60BE00EF11E87E08A9DF0018B9DF00D79
:1025C0001124E654FC4FF382E28220813181201BEA
:1025D000310B318320838681800F912F911D8A3F9B
:1025E000910510F4232BF1F487E08A9DF0018B9D77
:1025F000F00D1124E654FC4F1682F982EA8222E0A3
:1026000030E0AE014F5F5F4F68E270E0872D0E94BF
:10261000450860E470E0872D0E949E0C7CCFA801E5
:10262000B601C5CF868377CFCF93DF93FC01218D91
:10263000328D2115310529F48FEF9FEFDF91CF9176
:102640000895EC01808D4217530708F0A9010E94FC
:1026500044121816190684F7298D3A8D281B390B58
:102660003A8F298FEBCF0F931F93CF93DF931F9256
:10267000CDB7DEB7FC01218D328D232B41F48FEFD6
:102680009FEF0F90DF91CF911F910F9108958C01D3
:1026900041E050E0BE016F5F7F4FFC01808D0E94E2
:1026A0004412181619065CF7F801818D928D019776
:1026B000928F818F898190E0E4CFCF93DF931F9237
:1026C000CDB7DEB741E050E0BE016F5F7F4FFC0148
:1026D00084850E9444121816190634F4898190E00A
:1026E0000F90DF91CF9108958FEF9FEFF9CFFC010D
:1026F0008485843010F40C94441290E080E00895B6
:102700000F931F93CF93DF9300D0CDB7DEB7FC01BB
:1027100024852430E0F48C0180E591E00E9463027E
:1027200022E030E0AE014F5F5F4F60E170E0F80102
:1027300084850E94E30D89819A81982789279827AB
:102740000F900F90DF91CF911F910F91089590E01E
:1027500080E0F6CF0F931F93CF93DF9300D0CDB7D8
:10276000DEB7FC0124852430E0F48C0180E591E0A3
:102770000E94630222E030E0AE014F5F5F4F64E0F1
:1027800070E0F80184850E94E30D89819A81982781
:10279000892798270F900F90DF91CF911F910F916C
:1027A000089590E080E0F6CFDC018AEA91E08D9315
:1027B0009D9384E0FB0101900D928A95E1F70895C5
:1027C000EF92FF920F931F93CF93DF9300D000D02F
:1027D000CDB7DEB78C017B01FB0184858430A8F086
:1027E0008AEA91E0F8019183808312821382148235
:1027F0001582C8010F900F900F900F90DF91CF912D
:102800001F910F91FF90EF90089580E591E00E9455
:10281000630224E030E0AE014F5F5F4F6CE070E098
:10282000F70184850E94E30DBE016F5F7F4FC801F1
:102830000E94D413DECF0F931F93CF93DF93CDB7B6
:10284000DEB728970FB6F894DEBF0FBECDBF8C0160
:10285000D80159964D915C915A974115510551F007
:10286000ED91FC91048CF58DE02D70E060E0C801E5
:102870000995EECFF801808D0E941D12892BB1F1D0
:1028800048E050E0BE016F5F7F4FD80158968C91B1
:102890000E94441218161906F4F4D801509684E0E8
:1028A000FE01319601900D928A95E1F78D8190E0BD
:1028B000982F88272E81820F911DF801958B848B8C
:1028C0008F81282F30E0322F22278885820F932F87
:1028D000911D928F818F28960FB6F894DEBF0FBEA0
:1028E000CDBFDF91CF911F910F91089590E080E0CF
:1028F000F2CF4F925F926F927F928F929F92AF92A0
:10290000BF92CF92DF92EF92FF920F931F93CF93DC
:10291000DF93CDB7DEB763970FB6F894DEBF0FBE77
:10292000CDBF7C016B013A01FB0120E090E080E02B
:102930006AE03191332309F461C040ED430F4A301E
:1029400008F04DC0689FA001699F500D1124CA0175
:10295000C097830F911D37FD9A958F3F910549F3DD
:1029600040F3F70142815381648175818091AC0409
:102970009091AD04A091AE04B091AF0448175907EF
:102980006A077B0709F40DC28701085F1F4F0E9489
:10299000D9036F7077277C5FC8010E942F108130A8
:1029A00009F004C28AEA91E09A838983F70182815F
:1029B0009381A481B5818B839C83AD83BE8345E3E2
:1029C00050E0BE016F5F7F4FC8010E94D508892B80
:1029D000A9F5D12CC12CC8010E94C60C17C03E32EB
:1029E00009F0BFCF233009F4BCCFD301A20FB11D32
:1029F00012968C932F5F90E080E09BCF233009F0FC
:102A0000B0CFF3018583CC24C394D12CC601639647
:102A10000FB6F894DEBF0FBECDBFDF91CF911F91EF
:102A20000F91FF90EF90DF90CF90BF90AF909F906D
:102A30008F907F906F905F904F9008950E94D90380
:102A4000F7017783668342E050E0B7016A5F7F4F0A
:102A5000C8010E943F1181E090E09A83898342E09F
:102A600050E0BE016F5F7F4FC8010E943F1180E0C0
:102A700091E09A83898342E050E0BE016F5F7F4F0F
:102A8000C8010E943F111A82198242E050E0BE0143
:102A90006F5F7F4FC8010E943F1142E050E0BE01CE
:102AA0006F5F7F4FC8010E943F1142E050E0BE01BE
:102AB0006F5F7F4FC8010E943F115601F601808170
:102AC000882301F16501F60181912F01882311F01E
:102AD0008E32B1F446018A189B081814190474F454
:102AE0008D8641E050E0BE01635F7F4FC8010E94C8
:102AF0003F11A401B501C8010E943F115201DECF70
:102B00006201E1CF1D8641E050E0BE01635F7F4F6F
:102B1000C8010E943F11C12CDD24D394DA82C982FE
:102B200042E050E0BE016F5F7F4FC8010E943F113D
:102B3000DA82C98242E050E0BE016F5F7F4FC80178
:102B40000E943F11C8010E943A0D892B09F441CF20
:102B5000F3E0AF2EB12C230122E0420E511CD4C071
:102B6000F7014281538164817581808D918DA28DA1
:102B7000B38D481759076A077B0709F008C1848D90
:102B8000958DC59709F003C181A192A15DEFC52E76
:102B9000DD24DA940C970CF4ADC04CE050E0BE019B
:102BA0006F5F7F4FC8010E9414138B819C8198270F
:102BB000892798279A8B898BF7014681578129812C
:102BC0003A814217530709F0E7C097FFE5C08F70BD
:102BD00092703BEFC32EDD24DA94892B09F08AC072
:102BE0006F8078847624672476242AEFC22EDD2431
:102BF000DA946114710409F47DC0D12CC12C8D814B
:102C00009E81982789279827C816D906F8F441E0AD
:102C100050E0BE01635F7F4FC8010E9414134D85D1
:102C2000442331F050E070E060E0C8010E941413CA
:102C30008D858111ECCF44E050E070E060E0C80188
:102C40000E941413FFEFCF1ADF0AD9CF912C812CE9
:102C500041E050E0BE016D5E7F4FC8010E94141339
:102C60004B89842F807C09F06CC0442331F050E004
:102C700070E060E0C8010E9414138B898111E8CFD5
:102C800042E050E0BE01615F7F4FC8010E94141313
:102C900042E050E0BE01635F7F4FC8010E94141301
:102CA00044E050E070E060E0C8010E94141342E08C
:102CB00050E0BE016F5E7F4FC8010E9414138F85E4
:102CC000988949895A898115914009F043C0CD847A
:102CD000DE84DC24CD24DC2481E0C816D104D1F5C7
:102CE0004115544009F04AC044E050E0B201C80127
:102CF0000E94141321E0A21AB10809F46CCEFFEF70
:102D0000CF16DF0609F067CE0E94D9033B014C01C4
:102D1000C8010E941B14181619060CF421CF0E943A
:102D2000D9036619770988099909693873418105BA
:102D3000910548F562E370E080E090E00E94A60310
:102D4000E7CF41E050E070E060E0C8010E9414135A
:102D50001B8A93CF54274527542770E060E0C801B1
:102D60000E941413FFEF8F1A9F0A6814790409F068
:102D70006FCF96EFC92EDD24DA94BCCFE7EFCE2ECD
:102D8000DD24DA94B7CFCC24CA94DC2CB3CF6EEF19
:102D9000C62EDD24DA94AECF4CEFC42EDD24DA94B7
:102DA000A9CF8EEFC82EDD24DA9430CED12CC12CE1
:102DB0002DCECF92DF92EF92FF920F931F93CF937E
:102DC000DF93CDB7DEB7AF970FB6F894DEBF0FBE77
:102DD000CDBF7C016A010AEA11E01A8309831C86CF
:102DE0001B8688EE93E0A0E0B0E08D879E87AF87DA
:102DF000B88B8EE191E09A878987188F0F8B198E97
:102E00001A8E1B8E1C8E84E089A31BA70AA71CA602
:102E10001DA61EA61FA68091A0049091A104A091BA
:102E2000A204B091A3048EA39FA3A8A7B9A78B83E4
:102E30009C83AD83BE8318861F82AE01465D5F4FC3
:102E4000CE0101960E94791481309105B1F4D70129
:102E5000ED91FC910488F589E02D1DA30CA38CA5B0
:102E60009DA5AEA5BFA58EA39FA3A8A7B9A7A601A0
:102E7000BE016C5D7F4FC7010995AF960FB6F89400
:102E8000DEBF0FBECDBFDF91CF911F910F91FF909D
:102E9000EF90DF90CF900895CF92DF92EF92FF9264
:102EA0000F931F93CF93DF93CDB7DEB7AF970FB6D6
:102EB000F894DEBF0FBECDBF8C016B017A018AEAA8
:102EC00091E09A8389831B821C821D821E821C864C
:102ED0001B8648EE53E060E070E04D875E876F87A9
:102EE000788B2EE131E03A872987988F8F8B198E66
:102EF0001A8E1B8E1C8E24E029A39BA78AA71CA6D2
:102F00001DA61EA61FA6D8011C968C91843060F4C5
:102F10000E94D30C882321F0F80184850E94AE0C16
:102F200084E0D8011C968C938091A0049091A10418
:102F3000A091A204B091A3048EA39FA3A8A7B9A7B0
:102F40008B839C83AD83BE8318861F82AE01465D52
:102F50005F4FB601CE0101960E9479140097C1F02F
:102F6000D801ED91FC910684F785E02D8AEA91E085
:102F70009DA38CA38CA59DA5AEA5BFA58EA39FA345
:102F8000A8A7B9A7A701BE016C5D7F4FC80109952D
:102F9000AF960FB6F894DEBF0FBECDBFDF91CF91D5
:102FA0001F910F91FF90EF90DF90CF9008957F9247
:102FB0008F929F92AF92BF92CF92DF92EF92FF9249
:102FC0000F931F93CF93DF93CDB7DEB7A6970FB6BE
:102FD000F894DEBF0FBECDBF8C01762E942E852EC9
:102FE00020E2A22ECE0101967C01DC01EA2D1D9289
:102FF000EA95E9F76801F3E4CF0ED11C8AEA91E083
:103000009AA389A38FEF8BA38CA38DA38EA343E4F4
:1030100050E0BE016F5D7F4FC6010E94D50801964A
:1030200009F4BFC081E089838A8386E0B82EBB8221
:103030001C82D80114966D917D918D919C9117976A
:103040000E9463366D837E838F83988789869A86F4
:1030500080E890E09C878B874CE150E0B701C60187
:103060000E943F11FE0137968AE1DF011D928A9589
:10307000E9F74801B8E08B0E911CF401D7010190EB
:103080000D92BA94E1F740E150E0B701C6010E9409
:103090003F11F7011192AA94E9F796E0A92EB12CFD
:1030A00040E250E0B701C6010E943F11F1E0AF1AC3
:1030B000B108B1F783E6898392E89A8393E59B830D
:1030C0008C8385E38D8381E08E837F829DE3988767
:1030D00097E099878A8786E0F401DE011B960190CC
:1030E0000D928A95E1F78CE0898B8A8B69EF71E00C
:1030F000CE0143960E94BE37D8011B966C91CE013B
:1031000049960E946602F8016485CE014B960E94A2
:103110006602D8011D966C91CE014D960E94660202
:103120004EE150E0B701C6010E943F11B3E07B12AF
:103130001EC082E3898384E08A83F80196859B839D
:1031400097859C8390899D8391899E8396E39F8335
:103150008887828D8987838D8A87848D8B87858DEB
:103160008C874CE050E0B701C6010E943F1187E315
:10317000898386E08A8391E09B8393E09C838D839F
:103180008FE08E838AE38F838BE388878FEF898735
:1031900049E050E0B701C6010E943F11C6010E94FC
:1031A0003A0DA6960FB6F894DEBF0FBECDBFDF91E5
:1031B000CF911F910F91FF90EF90DF90CF90BF9034
:1031C000AF909F908F907F9008950F931F93CF9310
:1031D000DF93EC01FB0101900020E9F78F01061B52
:1031E000170B8A819B81A801480F591F2C813D81B3
:1031F0002417350768F028813981A801820F931FB1
:103200000E94A5374A815B81400F511F5B834A832F
:10321000DF91CF911F910F9108950F931F93CF933B
:10322000DF93EC0188819981009759F02A813B81D5
:103230002617370730F081E0DF91CF911F910F9172
:1032400008958B016F5F7F4F0E94DB36009759F026
:10325000998388831B830A832C813D81232B59F713
:10326000FC011082E8CF80E0E7CF85ED8093BC00C1
:103270008091110390911203A0911303B091140354
:103280000796A11DB11D23E0B695A7959795879543
:103290002A95D1F72091BC0024FD03C010920F03A2
:1032A000089540911103509112036091130370919E
:1032B0001403452B462B472B69F30097A105B10555
:1032C00041F02AE22A95F1F700C00197A109B1095E
:1032D000E1CF809110030C94B1053F924F925F9221
:1032E0006F927F928F929F92AF92BF92CF92DF9216
:1032F000EF92FF920F931F93CF93DF93CDB7DEB77B
:10330000EA970FB6F894DEBF0FBECDBF7C012A014D
:103310003B0169010E94D9034B015C0187010D5BF0
:103320001F4FC8010E941B14181619069CF00E941A
:10333000D903681979098A099B0946165706680650
:10334000790608F466C162E370E080E090E00E94D4
:10335000A603E7CF42E250E0BE016F5F7F4FC80196
:103360000E94141389818230D1F0312C832DEA968A
:103370000FB6F894DEBF0FBECDBFDF91CF911F9186
:103380000F91FF90EF90DF90CF90BF90AF909F9004
:103390008F907F906F905F904F903F900895F801CD
:1033A000848995898334910501F76D817E818F81B0
:1033B00098850E9463364B015C01F6018082918200
:1033C000A282B38246E050E0B701685F7F4FCE0132
:1033D0004D960E949837892B41F6F70180819181A3
:1033E000A281B38188169906AA06BB0608F4BDCF50
:1033F00084819581A681B78188159905AA05BB05A9
:1034000008F4B3CF89899A89AB89BC898687978765
:10341000A08BB18B4EEC50E070E060E0C8010E94E0
:103420001413312CC701829698AB8FA7F701B6967B
:10343000FAABE9AB08969CAB8BAB67019AE1C90E7E
:10344000D11CBD96FEABEDABC701429698AF8FABDA
:10345000FD97FAAFE9AF4701FEE18F0E911CF8012D
:10346000818D928D181619060CF080CFC8010E942C
:1034700033138333910509F4B2C014F581309105FB
:1034800009F464C044F4892B51F3C8010E9433133A
:10349000AC01552775C08330910509F462C00697C9
:1034A000A1F7C8010E943313B82E44E050E0B401E4
:1034B000C8010E941413EB2DE450FF0BAF0160C054
:1034C0008A33910509F45FC084F585339105B1F124
:1034D000C697D9F6C8010E9433135C01B601CE012C
:1034E00089960E94D4138BA59CA5ADA5BEA5892B5A
:1034F0008A2B8B2BB1F0EDA9FEA940805180628010
:103500007380B601CE0183960E94D4138DA19EA133
:10351000AFA1B8A5A501481659066A067B0609F0B1
:10352000B8CF44E050E0B60118C08B33910509F4E0
:1035300040C08F3F910509F492CFA7CFC8010E94E8
:103540003313C8010E943313382E89CFC8010E945B
:10355000331344E050E06FA978ADC8010E94141302
:103560007ECFC8010E943313B82E44E050E069AD0D
:103570007AADC8010E9414138B2D8450990BAC01B5
:1035800070E060E0EACFC8010E94331344E050E0ED
:1035900069A97AA9C8010E941413F70166A177A14D
:1035A00080A591A50E94633666A377A380A791A703
:1035B00056CFC8010E94331344E050E06BA97CA9A8
:1035C000C8010E941413F70162A573A584A595A5EF
:1035D0000E94633662A773A784A795A740CFC8014E
:1035E0000E94331344E050E06FA578A9C8010E94FF
:1035F0001413F70162A173A184A195A10E946336FF
:1036000062A373A384A395A366A777A780AB91ABAE
:1036100026CF33243A94AACE0F931F93CF93DF93F0
:10362000CDB7DEB728970FB6F894DEBF0FBECDBF7B
:103630008C01CB014AE0BE016F5F7F4F0E949A313F
:10364000BE016F5F7F4FC8010E94E51828960FB634
:10365000F894DEBF0FBECDBFDF91CF911F910F91C8
:1036600008953F924F925F926F927F928F929F92B6
:10367000AF92BF92CF92DF92EF92FF920F931F9380
:10368000CF93DF93CDB7DEB7A1970FB6F894DEBF27
:103690000FBECDBF5C010DB71EB719A308A360E034
:1036A00070E0CB010E94A603D50191968D919C916B
:1036B0009297912C029709F4C6C390968C9190979B
:1036C0008F5F90968C9390975E962D913C91232BD3
:1036D00019F099249394B0C38330D8F7F50182850B
:1036E00093850E945209882309F486C38E010F5FD7
:1036F0001F4F3801D5011A96ED91FC91808191817F
:10370000DC01ED91FC910084F185E02D09951816FE
:1037100019060CF071C3D5011A96ED91FC9145E0A4
:1037200050E0BE01695E7F4F808191810E94E80375
:10373000009701F3059709F074C0888D998D98273B
:1037400089279827998F888FEA8CFB8CFE24EF2499
:10375000FE24FB8EEA8E892B09F463C08F898111C8
:1037600074C00E94D903F501608B718B828B938B9F
:1037700021A132A18A8D9B8D232B09F062C0288D57
:10378000398D2130310509F05CC089309105E1F1B6
:10379000883C910519F0049709F048C00E94CB0AB3
:1037A0008BE093E00E942C05D50150964D915D91E0
:1037B0006D917C91539758968D919D910D90BC91F0
:1037C000A02D481B590B6A0B7B0B2AE087ED93E079
:1037D0000E94240A86E093E00E94140AF501808981
:1037E0009189A289B389808F918FA28FB38F01E0D5
:1037F00010E012A301A3C5010E94592560E070E00A
:10380000CB010E94A60376CF0E94CB0A87E394E007
:103810000E94140A83E090E0D50192969C938E93C7
:103820009197D5011A968D919C9103C30E94CB0A62
:1038300080E294E00E942C058A8D9B8D0E94700A84
:10384000F0CF059709F056CFECCFB1E0EB16FB06B1
:1038500090F00E94CB0A8FE094E00E942C058A8DA4
:103860009B8D0E94700AF50112A211A28285938598
:103870000E9465093FCF8DB69EB6C70101960DB770
:103880001EB7081B190B0FB6F8941EBF0FBE0DBF55
:103890000F5F1F4FD5011A96ED91FC91A701B8015A
:1038A000808191810E94E8038E159F0509F064C014
:1038B000EA8DFB8DE00FF11F10820E94D903F50104
:1038C000608B718B828B938B8F89843109F4C7C095
:1038D000E8F48F3009F4C3C0813109F461C2863045
:1038E00009F082C2488D598DD12CC12CF12CE12CCC
:1038F00008EC10E030E020E060E0C5010E942C20E0
:103900000FB6F8949EBE0FBE8DBEF4CE8932F1F094
:10391000873309F45AC28D3109F066C281A192A1A0
:10392000892B01F70E94CB0A89E094E00E94140AD7
:1039300001E010E0F50112A301A3C5010E94592581
:1039400060E070E0CB010E94A603CCCF868597850E
:10395000892B39F480E490E00E94832FF50197874A
:103960008687EA8CFB8CE00EF11E1A830983FC82A9
:10397000EB820E151F0530F00FB6F8949EBE0FBEF9
:103980008DBE4FCF40E450E0B801D5011E968D9119
:103990009C910E94C537D5011E96ED91FC9117AE02
:1039A000C3010E943725FC018081918100E510E070
:1039B0008E159F0570F489819A81009709F44BC098
:1039C0002B813C818217930708F045C00E946A3121
:1039D0008B010E94CB0A89EF93E00E942C05D50150
:1039E0001E966D917C9187ED93E00E94DD0A6AE35B
:1039F00087ED93E00E943804C8010E94700AF50127
:103A0000828593850E946509D5011A96ED91FC91F6
:103A10001B971E968D919C911F9791878087138786
:103A2000028792961C921E9291970E94D903DC0104
:103A3000CB0188589341A109B109F501848B958B7D
:103A4000A68BB78B808B918BA28BB38B808F918F42
:103A5000A28FB38F55CF60E070E0CB01B9CF888DD6
:103A6000998DD5015F969C938E935E974A8C5B8C63
:103A70006801C40CD51C1D8F0C8FDF8ECE8E0C15EB
:103A80001D0508F013C1F801E080F180CE014C96CD
:103A90000E943725DC018D919C918C159D0508F0C5
:103AA00005C18C8D9D8DFC012081213459F4019636
:103AB0000E944C314EE0342E380E069744F03324E9
:103AC0003A9405C0CE014C960E944A25382EF6E75E
:103AD000EF16F2E7FF0609F406C138F531E6E31602
:103AE00032E7F30609F4E6C044E6E41642E7F406DA
:103AF00009F478C050E7E5165DE6F50609F039C12E
:103B00008C8D9D8D8C159D0508F0D0C0FC01208109
:103B10002134A9F501960E944C313EE0F32EF80EB7
:103B2000069794F1FF24FA942FC084E6E81687E7FD
:103B3000F80609F4A2C096E7E91697E7F90609F432
:103B4000EAC0A1E6EA16A7E7FA0609F012C1CE011B
:103B50004C960E943725DC018D919C918C159D051A
:103B600008F0A4C061E0832D0E94D302CE014C96E0
:103B70000E944A25BC01832D0E940F0397C0CE01ED
:103B80004C960E944A25F82ECE014C960E9437256D
:103B90000C8D1D8D60E072E0C8010E94B53760E0B9
:103BA000892B79F063E072E0C8010E94B537892B58
:103BB00039F067E072E0C8010E94B537892B49F4FB
:103BC00061E08F2D0E94D302CE014C960E943725D2
:103BD00097CF6BE072E0C8010E94B537892BA1F73F
:103BE00062E0EFCF7A8A698A1C8A1B8A00E110E0C2
:103BF0001E8B0D8B6EE072E0CE0141960E94E5189F
:103C0000032D10E0B801CE0141960E940C1BF80173
:103C1000E55BFC4F8491F801E95CFC4FF4900D5D8D
:103C20001C4FF801049160E070E0002389F08111DD
:103C30000E947C02E02FF0E0EE0FFF1FE75EFC4FDA
:103C4000A591B491EC91FE2261E070E009F460E08E
:103C5000CE0141960E940C1B0B891C890150110951
:103C600029893A89D12CC12CF12CE12C50E040E07B
:103C700064E1C5010E942C2019C0CE014C960E941F
:103C80003725DC018D919C918C159D0578F461E0C0
:103C9000832D0E94D302CE014C960E944A2561E0FA
:103CA000892B09F460E0832D0E94A502F501178E8F
:103CB000168E26CE7A8A698A1C8A1B8AE0E1F0E099
:103CC000FE8BED8B61E172E0CE0141960E94E5181A
:103CD000632D70E0CE0141960E940C1B832D0E9443
:103CE0006C03BC01B5CFE32DF0E0FA83E983BFE1BB
:103CF000B315E0F2EE0FFF1FE15AFC4F259134910E
:103D00002115310599F2E2E022363E0779F2C3012E
:103D1000F9010995CBCFCE014C960E9437258C8DA9
:103D20009D8D9C01201B310B421A530A9A83898373
:103D30005C824B825E824D82E32DF0E0FA8BE98B50
:103D40000FE1031508F4B2CFEE0FFF1FE156FC4F51
:103D5000259134912115310509F4A8CF12E02136BF
:103D6000310709F4A3CFB301CE014196F9010995BA
:103D70009DCF0E94CB0A8FED93E00E942C05C801D5
:103D80000E942425D5015E964D915C91D12CC12CC9
:103D9000F12CE12C02E010E030E020E060E069CF9F
:103DA0008A8D9B8D800F911F1A8309839C838B833F
:103DB0000817190708F0A4CDC3010E943725D501C3
:103DC0005F961C921E925E979BCD8A8D9B8D892B50
:103DD00009F496CD0E94CB0A80EF93E00E942C0557
:103DE000C8010E9424258CCDF50112A211A2828562
:103DF00093850E94650984CD0E94D9032B013C0163
:103E0000F501828593850E945209D50191962D91E5
:103E10003C9192972130310509F094C0F501811150
:103E200032C0408E518E628E738E12A211A2828594
:103E300093850E946509912CD50190968C9190975D
:103E4000815090968C93892DE8A1F9A10FB6F89432
:103E5000FEBF0FBEEDBFA1960FB6F894DEBF0FBE3A
:103E6000CDBFDF91CF911F910F91FF90EF90DF9029
:103E7000CF90BF90AF909F908F907F906F905F900A
:103E80004F903F90089580899189A289B3899301C9
:103E90008201081B190B2A0B3B0BD901C801893180
:103EA00016EF9107A105B10560F00E94CB0A88E5E5
:103EB00094E00E94140AD50192961C921E9291974A
:103EC000B1CC893C9F4AA105B10598F4F5018489DC
:103ED0009589A689B78993018201081B190B2A0BC2
:103EE0003B0BD901C801893C9F4AA105B10508F4E3
:103EF000F0CBF501808D918DA28DB38D9301820160
:103F0000081B190B2A0B3B0BD901C80181379741BC
:103F1000A105B10508F4DDCBD12CC12CF12CE12C8D
:103F200010E000E030E020E050E040E066E0C50155
:103F30000E942C20D50158964D925D926D927C92F4
:103F40005B97C7CB232B09F0C4CBF501408D518D76
:103F5000628D738D93018201041B150B260B370BA9
:103F6000B901A8018823B1F04137574161057105B6
:103F700008F4AFCB0E94CB0A8AE494E00E94140AB2
:103F8000D5011A968D919C910E946509F50112A2A6
:103F900011A251CF493853416105710508F499CBFD
:103FA0001A968D919C910E946509F50102851385F1
:103FB000D8011A966D917C91C8010E94E50AF8011A
:103FC000848781110DC0828593858035910599F490
:103FD00060E97FE1C8010E94E50AD8011C968C9334
:103FE000D8011C969C90911011C0F501408E518E05
:103FF000628E738E21CF80399F4191F760E570E02A
:10400000C8010E94E50AF8018487EACF81E090E0C8
:10401000D5015D969C938E935C971C962D913C9157
:10402000F90101900020E9F731978F01021B130B72
:10403000D12CC12CF12CE12C41E050E06DE1C50107
:104040000E942C20F50184899589A689B789808FE3
:10405000918FA28FB38FF0CE2F923F924F925F92AB
:104060006F927F928F929F92AF92BF92CF92DF9288
:10407000EF92FF920F931F93CF93DF93CDB7DEB7ED
:10408000C854D1090FB6F894DEBF0FBECDBF4C01A6
:1040900068AF5AAF49AF27963FAF2EAF279721960B
:1040A0001FAF0EAF21972996FFAEEEAE299723964C
:1040B000DFAECEAE2397DC011A968D919C910E94C3
:1040C0005209882309F4B7C1B8ADBB2351F0B6300B
:1040D00041F0BD3131F0F40181A192A1019709F0C5
:1040E000AAC188AD8F508630A0F5D40154964D9169
:1040F0005D916D917C9157975096CD90DD90ED90AC
:10410000FC905397C416D506E606F70610F46A012C
:104110007B01B2E4CB0ED11CE11CF11C0E94D9033F
:10412000A7019601261B370B480B590BDA01C90171
:10413000B7FD9BC1C4010E94311B0E94D903A70196
:104140009601261B370B480B590BDA01C901B7FF43
:10415000F1CFF40180819181019709F0B2C082E032
:1041600090E09183808322813381448155816681EF
:10417000778180859185A0E0FE017A960E94C936FC
:1041800009F486C1FBABEAAB1DAA1CAA88E190E04A
:104190009FAB8EAB6EEF71E0CE01C2960E94E51828
:1041A000D40112964C90129713965C901397149624
:1041B0006C90149715967C9015971696BC91BBAF92
:1041C000F401F781FCAFD40118962C90189719963A
:1041D0003C90198E9201A3016BAD7F2FC101A0E02D
:1041E0000E94C93609F44AC1FE0179962596FFAFAF
:1041F000EEAF259727E130E03EAF2DAF8AE0A82E45
:10420000B12CC12CD12CE12CF12C00E010E092015A
:10421000A3016BAD7CADC1010E946A36F901EC5E71
:10422000FD4F80812596AEADBFAD25978E93259627
:10423000BFAFAEAF2597EDADFEAD3197FEAFEDAFA1
:104240009AE0A92EB12CC12CD12CE12CF12C00E04C
:1042500010E09201A3016BAD7CADC1010E946C36F0
:1042600029013A016BAF7CAF1C01A0E00E94C93666
:1042700021F04DAD5EAD452B09F66DAD7EAD6C0FF9
:104280007D1F6E5F7F4F09F0FEC0EAA9FBA98CA9D4
:104290009DA99C012F5F3F4F3DAB2CABE80FF91F51
:1042A00010820CA91DA9015011092AA93BA9D12CE2
:1042B000C12CF12CE12C50E040E065E1C4010E94EA
:1042C0002C2029AD3AAD232BB9F4D4015E960D9084
:1042D000BC91A02DBAAFA9AFAB2B71F4F401848DC2
:1042E000958D019609F4E9C0958F848FF401048CB3
:1042F000F58DE02DFAAFE9AF27962EAD3FAD2797AC
:1043000021960EAD1FAD21970B5F1F4F232B11F48C
:1043100005E010E029964EAD5FAD299790E080E072
:10432000452B21F023968EAD9FAD2397080F191FC3
:1043300058AD598389AD9AAD9827892798279B83D3
:104340008A8321968EAD9FAD21972396AEADBFADEA
:1043500023978A0F9B1F9827892798279D838C83F3
:10436000D4011A96ED91FC9180819181DC01ED914F
:10437000FC910280F381E02D45E050E0BE016F5FCB
:104380007F4F09957C0160E070E0CB010E94A6039D
:10439000B8ADBB2309F444C02196EEADFFAD219723
:1043A000EF2BE1F0D4011A96ED91FC91808191817F
:1043B000DC01ED91FC910280F381E02D21964EAD60
:1043C0005FAD219727966EAD7FAD27970995E80ED3
:1043D000F91E60E070E0CB010E94A6032396EEADCB
:1043E000FFAD2397EF2BE1F0D4011A96ED91FC91EC
:1043F00080819181DC01ED91FC910280F381E02DBF
:1044000023964EAD5FAD239729966EAD7FAD29976C
:104410000995E80EF91E60E070E0CB010E94A6034A
:10442000E016F10609F44EC0F40112A211A2828531
:1044300093850E946509C85BDF4F0FB6F894DEBF15
:104440000FBECDBFDF91CF911F910F91FF90EF90E5
:10445000DF90CF90BF90AF909F908F907F906F90A4
:104460005F904F903F902F900895D40190968C913B
:1044700081116FCEC4010E94311B6BCE80E3888F07
:10448000BE01685E7F4FCE01C2960E94E51809CF3B
:10449000FA83E9831C821B8284E090E09E838D83F3
:1044A00066E372E0CE0101960E94E5180B811C8143
:1044B0000150110929813A81FACE81E090E0958F6F
:1044C000848F14CF0E94D903D40154966D937D93A9
:1044D0008D939C935797AFCFCF92DF92EF92FF923D
:1044E0000F931F93CF93DF93CDB7DEB7C658D10993
:1044F0000FB6F894DEBF0FBECDBF7C018B01CE019D
:104500000196CF57DF4F99838883C158D040CD574C
:10451000DF4F19821882C358D04080E890E0CB5713
:10452000DF4F99838883C558D04068E372E0CE019D
:104530008F579F4F0E94E518B701CE018F579F4FAD
:104540000E940C1BB801CE018F579F4F0E940C1B7D
:10455000CD57DF4F08811981C358D0400150110950
:10456000CF57DF4F28813981C158D040D12CC12C81
:10457000F12CE12C50E040E064E18AE795E00E94F4
:104580002C20CA57DF4F0FB6F894DEBF0FBECDBF49
:10459000DF91CF911F910F91FF90EF90DF90CF901F
:1045A00008950E942E0920E030E04CE052E40E9481
:1045B0004E361816B4F480918402882391F010923C
:1045C000840270E060E082E090E00E946C2260E093
:1045D00088E00E94C1096BE372E08CEB94E00C94DC
:1045E000DD0A0895CF92DF92EF92FF920F931F930F
:1045F000CF93DF93CDB7DEB7C75AD1090FB6F89482
:10460000DEBF0FBECDBF0E942E096B017C01CE0123
:104610000196CE55DF4F99838883C25AD040CC553E
:10462000DF4F19821882C45AD04080E890E0CA5502
:10463000DF4F99838883C65AD04068E372E0CE0189
:104640008E559F4F0E94E51861E070E0CE018E55B7
:104650009F4F0E940C1B8E010F571F4F23E045E018
:10466000C701B6010E94652FB801CE018E559F4F3C
:104670000E94E518CC55DF4F08811981C45AD040FB
:1046800001501109CE55DF4F28813981C25AD040DF
:10469000D12CC12CF12CE12C50E040E064E18AE700
:1046A00095E00E942C20C955DF4F0FB6F894DEBF6D
:1046B0000FBECDBFDF91CF911F910F91FF90EF9073
:1046C000DF90CF9008951F920F920FB60F92112492
:1046D0002F933F938F939F93AF93BF938091B20398
:1046E0009091B303A091B403B091B5033091B1039D
:1046F00023E0230F2D3758F50196A11DB11D2093FE
:10470000B1038093B2039093B303A093B403B09327
:10471000B5038091B6039091B703A091B803B0910F
:10472000B9030196A11DB11D8093B6039093B70301
:10473000A093B803B093B903BF91AF919F918F91AC
:104740003F912F910F900FBE0F901F90189526E864
:10475000230F0296A11DB11DD2CF1F920F920FB64B
:104760000F9211242F933F934F935F936F937F93F7
:104770008F939F93AF93BF93EF93FF9387ED93E056
:104780000E94BD04FF91EF91BF91AF919F918F91D6
:104790007F916F915F914F913F912F910F900FBE3D
:1047A0000F901F9018951F920F920FB60F92112421
:1047B0002F938F939F93EF93FF93E091E703F091F3
:1047C000E8038081E091ED03F091EE0382FD1BC0D0
:1047D00090818091F0038F5F8F732091F103821796
:1047E00041F0E091F003F0E0E952FC4F958F8093A7
:1047F000F003FF91EF919F918F912F910F900FBE3A
:104800000F901F9018958081F4CF1F920F920FB6D2
:104810000F9211242F933F934F935F936F937F9346
:104820008F939F93AF93BF93EF93FF938091B900C2
:10483000887F803609F44AC0F0F5883209F4A7C0B1
:1048400018F5803109F49BC0B8F4882309F4F9C045
:10485000883009F494C0FF91EF91BF91AF919F917F
:104860008F917F916F915F914F913F912F910F9019
:104870000FBE0F901F901895883109F488C08032C0
:1048800051F780930D0314C0803409F49DC040F4A7
:104890008033B9F38833F9F680930D0385ECB0C00B
:1048A000803509F485C0883509F496C0883499F6B6
:1048B0000E943519D0CF883909F48CC038F5883773
:1048C00029F050F4883611F0803729F683E0809380
:1048D0000F031092E80257C0883809F47BC0803972
:1048E00019F0803809F0B7CF8091E802803208F0E3
:1048F00071C0E091E80281E08E0F8093E802809120
:10490000BB00F0E0E853FD4F80833DC0803B39F0B1
:10491000E0F4803A09F479C0883A09F09CCF84E049
:1049200080930F031092C7021092C602E0913903E0
:10493000F0913A0309958091C60281110FC081E080
:104940008093C6021092A60209C0803C09F4A6CF4B
:10495000883C09F4A3CF883B09F07DCFE091C702E2
:1049600081E08E0F8093C702F0E0EA55FD4F808111
:104970008093BB009091C7028091C60229C08091AC
:10498000EA028093BB0085EC8093BC0064CF9091D9
:104990000C0380910B03981758F5E0910C0381E00C
:1049A0008E0F80930C03F0E0E551FD4F8081E9CF3D
:1049B000E0910C0381E08E0F80930C038091BB008B
:1049C000F0E0E551FD4F808390910C0380910B0343
:1049D0009817C8F285E8D8CFE0910C0381E08E0FDC
:1049E00080930C038091BB00F0E0E551FD4F808384
:1049F00080910E0381115CCF81E08093E90284EA0B
:104A00008093BC0010920F0326CF85EC8093BC00EE
:104A100010920F038091E802803230F4E091E802B6
:104A2000F0E0E853FD4F10826091E80270E0E09101
:104A30003703F091380388EC92E009951092E80270
:104A40000ACF10920D0334CFCF93DF93BC0187EDD3
:104A500093E00E94050AEC016CEA71E087ED93E0B7
:104A60000E94050A8C0F9D1FDF91CF910895DC01F4
:104A7000ED91FC911197309761F012962D913C9138
:104A80001397E217F30728F401900020E9F7ED935C
:104A9000FC930895FC0180819181009739F0228177
:104AA00033818217930710F40C944C3190E080E02E
:104AB0000895AF92BF92CF92DF92EF92FF920F9341
:104AC0001F93CF93DF93CDB7DEB7CC5CD1090FB680
:104AD000F894DEBF0FBECDBF5C01CE0189579F4F5A
:104AE000C953DF4F99838883C75CD040C753DF4FDA
:104AF00019821882C95CD04080E490E0C553DF4F32
:104B000099838883CB5CD04065E272E0CE01895303
:104B10009F4F0E94E5186AE272E0CE0189539F4FD1
:104B20000E94E51846E850E06DE671E0CE0101967E
:104B30000E949131C753DF4FC880D980C95CD040F3
:104B400081E0C81AD108C953DF4FE880F980C75CFB
:104B5000D04006E810E09E012F5F3F4F50E040E05C
:104B600061E1C5010E942C20C453DF4F0FB6F894B9
:104B7000DEBF0FBECDBFDF91CF911F910F91FF9090
:104B8000EF90DF90CF90BF90AF9008951092DA032E
:104B90001092D90388EE93E0A0E0B0E08093DB03AD
:104BA0009093DC03A093DD03B093DE0328E431E0AF
:104BB0003093D8032093D70325EC30E03093E403FF
:104BC0002093E30324EC30E03093E6032093E503E5
:104BD00020EC30E03093E8032093E70321EC30E051
:104BE0003093EA032093E90322EC30E03093EC03A6
:104BF0002093EB0326EC30E03093EE032093ED039B
:104C00001092F0031092F1031092F2031092F3034A
:104C1000109277041092760480937804909379042C
:104C2000A0937A04B0937B048AE591E09093750495
:104C3000809374048AEA91E09093810480938004C5
:104C400010928204109283041092840410928504BE
:104C500090938704809386041092880410928904AC
:104C600010928A0410928B0490938D0480938C048C
:104C700010928E0410928F0410929004109291045E
:104C8000909393048093920410929404109295044C
:104C9000109296041092970490939904809398042C
:104CA00010929A0410929B0410929C0410929D04FE
:104CB0009093A5048093A4041092A6041092A704D4
:104CC0001092A8041092A90490939F0480939E04CC
:104CD0001092A0041092A1041092A2041092A304B6
:104CE0009093AB048093AA041092AC041092AD048C
:104CF0001092AE041092AF049093B1048093B0046C
:104D00001092B2041092B3041092B4041092B5043D
:104D10009093C0058093BF051092C1051092C20503
:104D20001092C3051092C4051092B3051092B205FB
:104D300028E731E03093B1052093B00524E02093BB
:104D4000BC0528EE33E03093BE052093BD0590935B
:104D5000A6058093A5051092A7051092A8051092AC
:104D6000A9051092AA051092AC051092AB051092FD
:104D7000AE051092AD051092AF0580EB95E09093D3
:104D8000A4058093A30580E797E1A0E0B0E08093BD
:104D9000B4059093B505A093B605B093B7051092EE
:104DA0007B0510927A0510927C0510927D05109279
:104DB0007E0510927F051092800510928105109259
:104DC00082051092830583EA95E090938505809390
:104DD000840510928705109286051092890510921D
:104DE000880510928A0510928B0510928C051092FE
:104DF0008D0510928E0510928F05109290051092DD
:104E000091051092920510929305109294051092BC
:104E1000950510929705109296051092990510929B
:104E2000980510929A0510929C0510929B058FEFA1
:104E30009FEF90937905809378051092BF041092AC
:104E4000BE048CE691E09093BD048093BC0487E29D
:104E50008093C00480E18093C50482E08093C604FF
:104E60001092C7041092B7041092B6041092B904BD
:104E70001092B8041092BB041092BA0470E060E083
:104E800086EB94E00E940D192091B6043091B7048E
:104E9000811113C02115310519F0C9010E941F307D
:104EA0001092B7041092B6041092BB041092BA0488
:104EB0001092B9041092B80408951092BB04109295
:104EC000BA046EEA71E0C9010C94BE37CF93DF9348
:104ED000CDB7DEB7AF970FB6F894DEBF0FBECDBF2C
:104EE000789484B5826084BD84B5816084BD85B5C5
:104EF000826085BD85B5816085BD80916E008160D1
:104F000080936E0010928100809181008260809376
:104F10008100809181008160809381008091800078
:104F20008160809380008091B10084608093B100A3
:104F30008091B00081608093B00080917A0084609D
:104F400080937A0080917A00826080937A008091C9
:104F50007A00816080937A0080917A0080688093E3
:104F60007A001092C10010923E0310923D031092FD
:104F70003C0310923B030E94930585EE93E09093CF
:104F80003A038093390386EE93E09093380380933D
:104F900037031092C1048091C604823018F098E063
:104FA0009093C1048093C40462E370E080E090E0D9
:104FB0000E94A6036091C7048CEB94E00E94570600
:104FC00068EE73E080E090E00E94A60360E38CEB63
:104FD00094E00E9491090BE416E4C8010197F1F7EF
:104FE00060E38CEB94E00E949109C8010197F1F70E
:104FF00060E38CEB94E00E94910983E592E00197D5
:10500000F1F760E28CEB94E00E9491096091C10499
:10501000606240E08CEB94E00E94AA0984E08093F7
:10502000C20440E06CE08CEB94E00E94AA090E946C
:10503000F40982E08093C30440E066E08CEB94E0E6
:105040000E94AA0940E062E08CEB94E00E94AA0969
:105050000BE31FE1C8010197F1F788E08093C704D3
:1050600060E08CEB94E00E9457060E94F40940E057
:1050700062E08CEB94E00E94AA09C8010197F1F765
:1050800061E080E00E94C10963E472E08CEB94E08F
:105090000E94DD0A68EE73E080E090E00E94A603C3
:1050A0000E94F40961E080E00E94C10963E572E0BA
:1050B0008CEB94E00E94DD0A0E94CB0A84EE92E021
:1050C0000E94140A8EEF80939D059DEE90939E059D
:1050D0002AEB20939F058093A0058093A1059093D0
:1050E000A205A6E5B2E0E1E0F0E09F012F5F3F4FAF
:1050F0004D91E658FA4F83A1842783A3F901263006
:10510000310514F0E1E0F0E022E0A637B20769F7DC
:105110008091A50381112AC010928D0310928C03F7
:1051200088EE93E0A0E0B0E080938E0390938F032D
:10513000A0939003B09391038EE191E090938B0341
:1051400080938A038AEA91E090939903809398036D
:1051500010929A0310929B0310929C0310929D034D
:1051600084E08093A20381E08093A50387E493E029
:105170009093460380934503809144038111ADC011
:1051800060E372E080E090E00E94A603DFB6F8944E
:105190000DE213E0E1E4EE2EE3E0FE2E8091420307
:1051A000811125C0F8018491F7019491E82FF0E076
:1051B000EE0FFF1FEE50FD4FA591B4918C919823F7
:1051C00021F461E08AE00E94A50261E08AE00E9489
:1051D000D3028CB580618CBD8CB580648CBD61E0E0
:1051E0008DE00E94D30261E08BE00E94D3028091A7
:1051F00042038F5F80934203DFBEF8010491E02FEA
:10520000F0E0EE0FFF1FE450FD4F859194919093D5
:10521000410380934003F701E490E0923F0361E093
:105220008AE00E94D3020E94580780E591E00E9424
:10523000630284E38093D60380E80E9424080E94DE
:105240007E0D882309F432C288E00E9424080E945F
:105250006B0D883009F02AC280E10E9424080E9468
:105260006B0D803109F022C280E00E9424080E9468
:105270006B0D182F81111AC241E050E0BE016F5F23
:105280007F4F8FE190E00E94F60B8981833009F017
:105290000DC280E48093430342E06EE170E0812F11
:1052A0000E94800842E06FE170E0812F0E94800838
:1052B0001F5F143089F740E06EE170E0812F0E949B
:1052C000800840E06FE170E0812F0E9480081F5F3E
:1052D000183089F781E08093440380E591E00E94D3
:1052E000630246E050E06DE975E089E090E00E94DD
:1052F00074078AEA91E09A8389831B821C821D824B
:105300001E8244E050E0BE016D5F7F4F8FE090E071
:105310000E9474070091450310914603D8019296AC
:105320001D921D921D921C929597F80116A217A22C
:1053300010A611A69A961D921D921D921C929D97E1
:1053400080E69AEEA0E0B0E086AB97ABA0AFB1AF3D
:1053500080EA9FE0A0E0B0E082AF93AFA4AFB5AF2A
:10536000D801189686E0FD01282F11922A95E9F7B9
:105370009801225F3F4F94E1F90111929A95E9F764
:10538000EDE9F5E001900D928A95E1F72C5C3F4F35
:105390003BA72AA7D9011C920E94F4302FEC37E0DA
:1053A00040E050E00E944235DC01CB010196A11D96
:1053B000B11DF80184839583A683B783808391838D
:1053C000A283B3835801F3E4AF0EB11CC5010E9460
:1053D000C60C64E470E0C5010E942F10882309F414
:1053E000CEC10E94D9032B013C0148EEC42E43E0FC
:1053F000D42EE12CF12C52E0252E912C812CAAA543
:10540000BBA58C918330B9F18111C9C1F8018481A8
:105410009581A681B7810196A11DB11D84839583D5
:10542000A683B7830E94D903641975098609970971
:10543000A70196010E94AB35A90161E0C8010E9455
:10544000D71781E0AAA5BBA58C93F1E08F16910434
:10545000B1F20E94D9036419750986099709D80128
:10546000D6962D913D914D915C91D997261737078E
:105470004807590710F6C5010E94C60CF80184813F
:105480009581A681B7810196A11DB11D8483958365
:10549000A683B7830E94D903F801FE9660837183C7
:1054A000828393838A94892809F069C180E591E019
:1054B0000E9463020091450310914603B801625FA8
:1054C0007F4FCE0101960E94D41344E050E0BE010C
:1054D0006D5F7F4F8FE090E00E947407B8016A5EB5
:1054E0007F4FCE0101960E94D41344E050E0BE01EC
:1054F0006D5F7F4F81E090E00E947407B8016E5E9F
:105500007F4FCE0101960E94D41344E050E0BE01CB
:105510006D5F7F4F85E090E00E947407B801625E86
:105520007F4FCE0101960E94D4138B819C81AD8167
:10553000BE818093A0049093A104A093A204B09391
:10554000A3040E9481037F73809100019091010167
:1055500068277927709301016093000168EE73E07A
:1055600080E090E00E94A6038AEA91E09A83898312
:105570001B821C821D821E8280E591E00E946302D4
:1055800044E050E0BE016D5F7F4F8FE090E00E94ED
:10559000F60B0E94CB0A83ED92E00E942C056B81F2
:1055A00087ED93E00E94860A6EE287ED93E00E9409
:1055B00038046C8187ED93E00E94860A6EE287EDE5
:1055C00093E00E9438046D8187ED93E00E94860A83
:1055D0006EE287ED93E00E9438046E8187ED93E0E0
:1055E0000E94860A6CEA71E087ED93E00E94050A4A
:1055F00086E592E090938705809386050E94D90303
:10560000DC01CB0188589341A109B10980938E0533
:1056100090938F05A0939005B093910580938A0590
:1056200090938B05A0938C05B0938D058093920584
:1056300090939305A0939405B09395050E94CB0A8F
:1056400083E192E00E94140AE0918405F0918505BF
:1056500087E792E09187808780E590E09387828753
:1056600080918405909185050E94650910929C05A2
:1056700010929B050E94D9036B017C0180919B05D0
:1056800090919C05019709F455C10E94D9036C19AA
:105690007D098E099F09603576448105910508F0E2
:1056A00049C18AE795E00E94311BE8CF87E38093E8
:1056B000D60380E80E9424080E947E0D882329F1E9
:1056C00088E00E9424080E946B0D8830F1F480E18C
:1056D0000E9424080E946B0D182F8031B1F480E0E5
:1056E0000E9424080E946B0D81110FC041E050E020
:1056F000BE016F5F7F4F89E390E00E94F60B8981C6
:10570000843019F410934303E5CD83E38093D603EB
:1057100080E80E9424080E947E0D882371F180E1B8
:105720000E9424080E946B0D803139F582E10E94AD
:1057300024080E946B0D823101F580E00E9424084C
:105740000E946B0D811119C084E08093430315E51D
:1057500019A741E050E0BE01675D7F4F8BE190E00B
:105760000E94740718A741E050E0BE01685D7F4FBA
:105770008AE190E00E947407ADCD1092D6030E949A
:10578000CB0A87ED92E00E94140A60E177E280E0A4
:1057900090E00E94A603F0E0E0E00995FFCF84309E
:1057A000F9F4F80184819581A681B7810196A11D44
:1057B000B11D84839583A683B7830E94D90364199E
:1057C000750986099709A70196010E94AB35A901C1
:1057D00063E0C8010E94D717AAA5BBA52C9235CEBD
:1057E000813059F5F80142AD53AD64AD75AD9E0100
:1057F0002F5F3F4FC8010E946D19382EF2E08F13C2
:1058000092C089819A81AB81BC81F80184839583A0
:10581000A683B7830E94D90364197509860997097D
:10582000A70196010E94AB35A90163E0C8010E945F
:10583000D717AAA5BBA53C9208CE823009F005CEA9
:10584000F80142AD53AD64AD75AD9E012F5F3F4F82
:10585000C8010E946D19382EF5E08F135DC0E3E09A
:10586000AAA5BBA5EC93F80182A193A1A4A1B5A11F
:10587000892B8A2B8B2B41F424E833E040E050E065
:1058800022A333A344A355A3F80186A197A1A0A501
:10589000B1A5892B8A2B8B2B61F482A193A1A4A1A2
:1058A000B5A1B695A7959795879586A397A3A0A729
:1058B000B1A7F80182A593A5A4A5B5A5892B8A2B2C
:1058C0008B2BA9F482A193A1A4A1B5A1AC01BD0128
:1058D00023E076956795579547952A95D1F7841BD0
:1058E000950BA60BB70B82A793A7A4A7B5A7F801A2
:1058F00086A197A1A0A5B1A586A797A7A0ABB1AB9C
:1059000082A593A5A4A5B5A582AB93ABA4ABB5AB7B
:1059100088248394912C99CDF6E08F1304C0AAA516
:10592000BBA51C9292CDBFEF3B128FCDEAA5FBA584
:1059300010828BCD80919B0590919C05019709F079
:105940008FCE61E083E00E94D30260E08FE00E948E
:10595000D30261E085E00E94D30261E084E00E940E
:10596000D30260E08EE00E94D302E091E703F09161
:10597000E80382E08083E091E303F091E403108286
:10598000E091E503F091E60387E680831092EF0350
:10599000E091EB03F091EC0386E08083E091E90372
:1059A000F091EA03808180618083E091E903F091C6
:1059B000EA03808188608083E091E903F091EA0343
:1059C000808180688083E091E903F091EA0380811F
:1059D0008F7D8083809178059091790597FF22C013
:1059E0000E94D903E8ECF4E050E040E026E1249F77
:1059F000D001259FB00D11248D0108531B4FD801F4
:105A0000322F1D923A95E9F76083718382839383E5
:105A10004F5F5F4F76964830510549F710927905F0
:105A20001092780580917805909179050897CCF5CA
:105A3000E8ECF4E090E080E024813581232B09F04C
:105A4000EEC126813781232B09F0E9C126E1289F89
:105A50008001299F100D112408531B4F88EE93E0FD
:105A6000A0E0B0E0F80183879487A587B68782EF2E
:105A700092E2958384831286108A178681E0838B55
:105A80000E94D903D8016D937D938D939C931397B6
:105A9000809178059091790501969093790580938E
:105AA000780531EEC32ED12C22242394312C8FE0A3
:105AB0000E946C039695879596958795B601681B0D
:105AC000790B83E00E940F0364E670E080E090E0D1
:105AD0000E94A6030E942E091BA21AA21DA21CA2AC
